:020000040800F2
:1000000000000120A5770008CD770008CD77000813
:10001000CD770008CD770008CD77000800000000FC
:10002000000000000000000000000000CD77000884
:10003000CD77000800000000CD770008CD770008DC
:10004000CD770008CD770008CD770008CD77000880
:10005000CD770008CD770008CD770008CD77000870
:10006000CD770008CD770008CD770008CD77000860
:10007000CD770008CD770008CD770008CD77000850
:10008000CD770008CD770008CD770008CD77000840
:10009000CD770008CD770008CD770008CD77000830
:1000A000CD770008CD770008CD770008CD77000820
:1000B000A9570008CD770008CD770008CD77000854
:1000C000CD770008CD770008CD770008CD77000800
:1000D000CD7700087D070020CD770008CD77000898
:1000E000CD770008CD770008CD770008000000002C
:1000F0000000000000000000000000000000000000
:100100000000000000000000CD770008CD77000857
:10011000CD770008CD770008CD770008CD770008AF
:10012000CD770008CD770008CD770008CD7700089F
:10013000CD7700080000000000000000CD77000827
:10014000CD770008CD770008CD770008CD7700087F
:10015000000000000000000000000000000000009F
:10016000000000000000000000000000000000008F
:10017000000000000000000000000000000000007F
:10018000000000000000000000000000000000006F
:10019000000000000000000000000000000000005F
:1001A000000000000000000000000000000000004F
:1001B000000000000000000000000000000000003F
:1001C000000000000000000000000000000000002F
:1001D000000000000000000000000000000000001F
:1001E0005FF8E0F1044B05481B1A062B02D9044BBB
:1001F00003B11847704700BF6B0900206809002051
:100200000000000005490648091A891001EBD17168
:10021000491002D0034B03B118477047680900200A
:10022000680900200000000010B5064C237843B98F
:10023000FFF7D8FF044B13B10448AFF3008001234C
:10024000237010BD6809002000000000D0C5000820
:1002500008B5084B1BB108490848AFF300800848AF
:10026000036813B9BDE80840CCE7064B002BF9D072
:100270009847F7E7000000006C090020D0C500088F
:100280006409002000000000134B002B08BF114B35
:100290009D46A3F5803A00218B460F461148124A2D
:1002A000121A07F013FF0D4B002B00D098470C4B90
:1002B000002B00D098470020002104000D000B48BF
:1002C00007F09EFE07F0CAFE2000290000F010F89B
:1002D00007F09CFE00000800000001200000000064
:1002E0000000000068090020F4AE002035800008FE
:1002F00040F27121BC4B2DE980489A69B7B042F4B5
:1003000080429A61B94A916042F22C01D160B84AA8
:10031000202151600193B74A91685368994200F0D7
:100320006586116893680139581CB34E0B40906084
:1003300013441B7B96F80011DBB251B9E02B03BFCD
:100340003370012386F8003186F8001186F8011118
:10035000E1E7012906D1737086F80131022386F89E
:100360000031D8E7481C96F80121C0B2824273548C
:1003700086F80001CFD1B378182B00F0888425D8F7
:10038000042B00F0C6830DD8012B4FF0000446D09B
:10039000C0F07081022B00F08B81032B00F0E7820C
:1003A00000F0F4BD102B00F0308407D8082B00F0CB
:1003B00011830A2B00F0B58300F0E8BD112B00F08B
:1003C0003E84132B00F0518400F0E0BD202B00F0A0
:1003D000498510D81C2B00F0168504D81A2B00F084
:1003E0008D8400F0D3BD1D2B00F0CE841E2B00F0B9
:1003F0001D8500F0CBBD402B00F0898507D8302B40
:1004000000F05085312B00F0698500F0BFBD502B06
:1004100000F09685902B00F0BC8500F0B7BDE02180
:100420008DF84230754B8DF840100D21744A8DF8CF
:1004300041101978C2F828438DF8434011B10123C7
:100440008DF843306F4C23782BB19DF8433043F047
:1004500002038DF84330DFF8E88198F800302BB1C3
:100460009DF8433043F004038DF84330664F3B78EA
:100470002BB19DF8433043F008038DF84330634EB1
:1004800033782BB19DF8433043F010038DF843309F
:100490005F4D2B782BB19DF8433043F020038DF84E
:1004A00043305C4BB2F822C31B784FF0000E8DF83E
:1004B0004430594BB2F824031B78A2F822E38DF89C
:1004C0004530A2F824E3BCF1000F03D043F002034F
:1004D0008DF84530537D4FF0000E82F815E02BB1BA
:1004E0009DF8453043F004038DF8453092F82930EB
:1004F0004FF0000E82F829E02BB19DF8453043F013
:1005000008038DF8453092F82C332BB19DF8453017
:1005100043F010038DF8453028B19DF8453043F085
:1005200020038DF845303D4B9DF845201B78002B6E
:100530000CBF0023402313438DF8453041B13848A8
:1005400005F0ADF80D23B0FBF3F08DF8460001E0A7
:100550008DF846102378E3B1324B1B786BB13248EB
:1005600005F09DF82324B0FBF4F08DF847002F48E8
:1005700005F095F8B0FBF4F008E00A232C488DF85C
:10058000473005F08CF82323B0FBF3F08DF84800DA
:1005900003E08DF847308DF8483098F8003043B1CB
:1005A000244805F07CF87823B0FBF3F08DF849007F
:1005B00001E08DF849303B7843B11F4805F06FF8F2
:1005C000D823B0FBF3F08DF84A0001E08DF84A30F3
:1005D0003378BBB3194805F062F83023B0FBF3F071
:1005E0008DF84B0030E000BF0010024000380140A1
:1005F00000E100E00C010020C0240020F4020020F3
:10060000981C0020F0080020F3020020F5020020D2
:10061000F2020020C81F0020140D0020941C0020AE
:10062000D4250020F102002038410020484100205C
:10063000CC1F0020CC280020D8A80020508A002001
:10064000120700208DF84B302B7843B1404805F05D
:1006500026F84423B0FBF3F08DF84C0001E08DF850
:100660004C303C4B0D2110A898473B4B00221A60A0
:1006700000F08FBCE0238DF84030384A01238DF81C
:1006800043308DF842400023D8B2145C191DC9B222
:10069000013324B136A8014401F8984CF4E72D4BFE
:1006A00010A88DF8411098472B4B1C6000F071BCCE
:1006B0000239112941F24D83F578294AC5F3001317
:1006C00086F802317379322B01F2438311799279E2
:1006D00001F0200001F0020A01F0040C01F0080E04
:1006E00001F01007C0B2062A5FFA8AFA5FFA8CFCA2
:1006F0005FFA8EFEFFB2009009D9A2F16204012CCC
:1007000036D9A2F15B04052C01F2238330E0012AE3
:1007100003D1C80741F11D832AE0022A04D1BAF1AE
:10072000000F01F0168323E0032A04D1BCF1000F6F
:1007300001F00F831CE0042A04D1BEF1000F01F088
:10074000088315E0052A0DD1002F01F002830FE088
:10075000DC8F00201507002018002742688600085B
:10076000C0240020062A03D10098002801F0F1825D
:10077000767AA64C0F2E01F2EC82E07901F00101AD
:100780000290207A1AF1000A0390207B18BF4FF0E4
:10079000010A0490607B1CF1000C0590A07B18BF3F
:1007A0004FF0010C0690E07B1EF1000E0790607C7C
:1007B00018BF4FF0010E0890A07C003709909448B4
:1007C00018BF01270270934A94F80A801170924A68
:1007D000924982F800A0924A94F810B082F800C0C2
:1007E000904A94F8139082F800E08F4A247D1770A5
:1007F000009A8E4F101C8E4A18BF01201070EA43D9
:10080000C2F3C0120A7003EB43025100894801F59C
:10081000967189B29200A0F8A01202F5167286486D
:1008200092B2A7F8F024A0F874250C225A4383480A
:1008300002F51672C0F8F024814A03EB4303A2F8D4
:1008400088155B087F4A48333046A2F83C3201F0F5
:1008500021FD7D4B1FFA88F883F84367A3F844878E
:100860007A4B7B4AA3F800807A4B167083F8776B3B
:10087000794BC5F3800283F84C65C5F3C00387F854
:10088000F2344FF4966303FB09F3C7F8F434734B67
:10089000039983F80423029AC9014FEAC218099AFE
:1008A000A3F808134FEAC21E089A049902F5F06CE7
:1008B0000598EA07069E079F48BFC8F10002A3F803
:1008C00006834FEAC1114FEAC0104FEAC6164FEA3D
:1008D000C7174FEAC414A3F816C348BFA3F80623EA
:1008E0000BF5F06CAD07A3F80A13A3F80C03A3F8FB
:1008F0000E63A3F81073A3F812E3A3F81443A3F84C
:1009000018C312D54942404276427F42CEF1000ED2
:100910006442A3F80A13A3F80C03A3F80E63A3F828
:100920001073A3F812E3A3F814431978002940F0D8
:10093000F080019B019ADB69494843F00103D361D0
:100940004FF080434FF4C0429A60C72299624FF043
:100950008054DA620122DA6004601868104318607B
:10096000404B196043F8042C3C4B1A70D1E003282B
:1009700001F0EF81264BF0781B78834200F0C980AC
:10098000062809D9A0F16203012B20D9A0F15B034D
:10099000052B01F2DE811AE0012801D11D4B12E086
:1009A000022801D11C4B0EE0032801D11C4B0AE0A8
:1009B000042801D11B4B06E0052801D11A4B02E0A7
:1009C000062804D11A4B1B78002B01F0C28105F0D8
:1009D000C1FA9EE00E4D2B78632B15D1042847D128
:1009E000F378214C012B0CBF01270027237805D178
:1009F0003BB91E48638002F0D7FA02E00BB102F067
:100A000013FB2770002434E0022432E0C0240020CD
:100A1000C81F0020F4020020F0080020F10200208E
:100A200012070020F3020020F5020020CC2800204D
:100A3000F2020020D4250020D8A80020CC1F0020DE
:100A4000508A0020DC8F002058680020F07D0020B4
:100A5000EF7D00201C92002000850020981C0020C3
:100A600000E100E09481214288280020DF86000810
:100A700004242B78A3F15C02D2B2062A35D84D218A
:100A800021FA02F202F0010282F00100CAB196F8E6
:100A90000121042A40D1A94AD178A94A01290CBFD1
:100AA00001240024147041F0B3825078002841F0F2
:100AB000858203F0FD005C2841F08082517001F0D6
:100AC0007DBA5D2B11D196F80131042B24D19B4BBB
:100AD000DB78012B9B4B0CBF012200221A7018D12E
:100AE000984B5A78AAB9012210E05B2B10D196F8E6
:100AF0000131042B10D1914BDA78934B012A0CBFB2
:100B000001210021197004D1597811B95A7000E0FF
:100B10001CB902F027F83CE2042421468B4801F07E
:100B200052B98B4B1D78002D41F01681894C02394A
:100B3000CBB24FF47A72294620460093AA4607F0BA
:100B4000C5FA264629460822DFF838E2A4F8E82349
:100B5000A4F8EA5384F8EC534FF00C0C0098CBB295
:100B600098423FD97C4D002003EB0509C7B20CFB2E
:100B700007F77A4D794B3D44DF5D7FB399F80080EC
:100B80000130B845F2D1134640F2E23995F80880B9
:100B90004FF00047981AC0B2404520D268684FEA2B
:100BA000E30A37EA000003F007001EF800B016F869
:100BB0000A000CBF4BEA000020EA0B004B4506F888
:100BC0000A0005D90023A4F8E833042401F0C5B8CD
:100BD00001339BB27F084FF0010ADBE71346013176
:100BE0001A46BBE7BAF1000F01D0A4F8E823B4F825
:100BF000E8130829E6D0574B053189B2A3F8E8136A
:100C0000574809B202F09AF9C3E1564B1B788BB1F1
:100C10004F4D2B78012B0DD82C2841F0A1804E4848
:100C200002F0C2F9044630B92B78002B40F0B181B4
:100C30000120A8E1022421B24B4801F0C4B8494B7D
:100C40001B786BB1424D2B78012B09D80F2841F04E
:100C50008A80414802F0C8F904460028E4D000E048
:100C6000022421B2414801F0AEB83E4B1B784BB193
:100C7000374D2B78012B05D802F0D6F90446002811
:100C8000D2D000E0022421B2394801F09CB8394B9F
:100C90001B78002B01F06A802D4D2B7813F0FD0F8F
:100CA00041F06480344B1B78002B01F05F80252AD3
:100CB00041F05E80314804F0F2FC202841F25A8075
:100CC0002E4B93F8E8202AB100221A8183F8E820FD
:100CD0005A811A73204C04F12107284E14F8011F81
:100CE000304604F09BFCBC42F7D1254B1B78002B0F
:100CF00040F04681012386F84C3041E11D4B1B78C2
:100D0000C3B1134D2B7813F0FD0F13D11A4B1B7881
:100D10002BB10239C9B2104804F00CFA05E02528BD
:100D200041F02C800C4801F0B9FF0446002800F087
:100D3000278100E0022421B201F01EB8C024002067
:100D4000C82D002078280020F42D002038890008C4
:100D5000C81F002024420020C3240020348700083C
:100D60005A890008F4020020768900089589000855
:100D7000B2890008F0080020F1020020384100206C
:100D8000140D00209A960008864B1B78002B00F06B
:100D9000F887042840F0F887F378012B16D1824AAF
:100DA0001278022A2AD1814A1178002940F0F18074
:100DB0007F4A82F84C30C2F8DC10C2F8E010C2F86A
:100DC000E41082F8E81082F8E910E2E0B3B9764A5C
:100DD0001278022A12D1754A1278002A00F0D980BE
:100DE000734A82F84C30C2F8DC30C2F8E030C2F806
:100DF000E43082F8E83082F8E930CAE0044621465F
:100E00006C4800F0E0BF674B1B78002B00F0BF87F9
:100E10000C2840F0BF87684804F058F904460028C1
:100E200000F0B78021B2654800F0CDBF5D4B1B7864
:100E3000002B00F0B287042840F0B187F37800223D
:100E4000012B09D0022B40F0AC87594BC3F8E420AA
:100E5000012283F8E9209CE05549C1F8E02081F89F
:100E6000E83096E0564B1B78002B00F0A5874E4DDE
:100E70002B7813B1032B40F09F877C2840F09E878E
:100E8000504804F00CFC772840F29A874A4C04F151
:100E9000780614F8011F4B4804F0C0FBB442F8D1A7
:100EA00000F083BF484B1B789BB13F4D2B7813F06C
:100EB000FB0F0ED10239C9B2122940F289873E4890
:100EC00006F0D0F9044628B92B78002B61D1042014
:100ED00059E0022421B23D4800F075BF3A4B1B781F
:100EE00083B1314D2B7813F0FB0F0BD10239C9B20E
:100EF000122940F27087304806F0B4F90446002801
:100F0000E2D000E0022421B2314800F05CBF314B56
:100F10001B7883B1244D2B780BB1052B0BD13428D2
:100F200040F05C87244805F0D7F8044620B92B78B8
:100F30007BBB052027E0022421B2274800F043BFF5
:100F4000264B1B78002B00F05387174D2B7813B1DD
:100F5000062B40F04D87472840F04C87204804F08E
:100F60009EFB432840F248871E4C04F1440614F8C7
:100F7000011F1B4804F052FBA642F8D100F031BF1C
:100F80002B7833B9022004F0E5FF02E0012001F0E4
:100F900007FE154B002283F8002183F80121FFF79B
:100FA000BAB900BFF0080020C81F0020140D0020AF
:100FB00038410020E8890008C3240020038A000883
:100FC00012070020CC280020F3020020218A00080C
:100FD0003D8A0008F5020020568A0008F20200202F
:100FE000DC8F0020C2240020C02400204BF67F3379
:100FF000B44CD4F8282321789A4281BFB24B002206
:1010000083F8002183F80121D4F81C3325460133ED
:10101000AC4AC4F81C33002900F0CA824BF67F3377
:10102000D2F828239A421CD9A8490B785A1E052ABF
:1010300014D8022B10D1A64B1B786BB1A54B002204
:1010400083F84C20C3F8DC20C3F8E020C3F8E42088
:1010500083F8E82083F8E92000230B700023C4F80C
:1010600028339D4B01221A609C4804F04CFA20B9A9
:10107000974B1A78002A40F0C386994804F043FA47
:10108000012840F2A282DFF83CA200260DF12C09D3
:1010900010AC09EB06022146914804F0E7F9AA8E4C
:1010A000EB8E92B29BB29A4202D19AF83830ABB131
:1010B000EB8E2A6B9BB232F813200DAB23F816206F
:1010C000002285F83820EB8EA98D01339BB2EB8688
:1010D000EB8E9BB2994201D8AAF8362095F82133BD
:1010E0005BB1BDF840301BB140F6FF72934204D1B2
:1010F000B5F822330133A5F82233B5F81623BDF82D
:1011000040300CAF9B1AB5F906231BB25343DB13D7
:1011100003F30F0327F816300136022EDFF8A481FF
:10112000B6D198F82C53002D40F04F82674A1378BF
:101130009246002B4BD16B4B1B7853B1394608F1CB
:1011400068003346224606F02DFD0DA9204601F029
:10115000E9F8654B1B784BB13946644802232246B7
:1011600006F020FD0DA9204605F0C2FB604B1B7860
:101170007BB102230EAA39465E4806F013FD0EA984
:101180005D480223224606F00DFD0DA9204605F01C
:10119000B1FE5A4D5A4E2B781BB93378002B00F014
:1011A0001482022322463946564806F0FBFC337867
:1011B0001BB10DA9204603F0BDFD2B78002B00F0DC
:1011C0000482514B1B78002B00F0B980B3E0012B57
:1011D00010D1444B1B78002B00F0F781394608F101
:1011E00068003346224606F0DDFC0DA9204601F0DA
:1011F00099F8EAE1022B40F0A780404B1B78002BC6
:1012000000F0E38133462246394608F15C0006F0DF
:10121000C9FC3D4B1B78002B00F091802C4B1B78B8
:10122000002B00F08880DFF8F080384EA8F1080A23
:1012300019F80530042B0DD0082B15D10023A6F882
:101240002237A6F82A37A6F82037C6F82C3786F8B2
:10125000413709E02E4A0023AAF80030A8F80030F0
:101260001380D36082F82130B6F82A37B6F84407E5
:1012700001339BB20DF1340B984234F915103BF851
:101280001520A6F82A3705D996F84677003718BFF3
:10129000012703E01D4804F00DFC0746B8F80030B4
:1012A0001C480133B0F800E09BB29E4534F915109C
:1012B0003BF81520A8F8003030D98078003018BFEE
:1012C00001202FE0981C0020C0240020C81F00200F
:1012D000140D00203841002090812142B01C0020D4
:1012E0009C1C0020F4020020F30200200C1D0020B2
:1012F000F5020020181D0020241D0020F008002009
:1013000012070020F41C0020F10200205868002081
:10131000CC7D0020F07D0020D67D0020A0F244701E
:1013200004F0C8FB0135022D82D1002F18BF3846CA
:1013300002F016FA49E1204605F040FC45E10DA90E
:10134000204603F03FFB40E1032B10D1A94B1B7853
:10135000002B00F03A81394608F15C003346224602
:1013600006F020FC0DA9204603F0E4FC2DE1042B3F
:1013700010D1A14B1B78002B00F02781394608F1D2
:1013800074003346224606F00DFC0DA9204605F0F8
:10139000AFFA1AE1052B17D1984B1B78002B00F000
:1013A000148133460EAA394608F1800006F0FAFB94
:1013B0000EA908F18C003346224606F0F3FB0DA976
:1013C000204605F097FD00E1632B40F09B803346FB
:1013D0000DF138098A4E39464A4608F1680006F090
:1013E000E1FB374639F915203379D10F8B4209D00B
:1013F0003368B3F5004F2ABF6FF4CC7003F2991332
:101400001B1833603B68397103F54C513331B1F52A
:10141000803F01D2316070E0A3F54C43CD3B336097
:10142000B36897F83C105B00002AB8BF43F0010393
:10143000B3604B1CDBB2172BB86887F83C3084BF15
:10144000002386F83C3020F07F436E4807EB4101D3
:1014500058408A8104F012FA022822D86A4B6B495C
:1014600003F1300E4FF47A5233F9020F8142B8BFC4
:1014700001468242A8BF02469E45F5D18B1A052B34
:101480000FDD00238DF840300B128DF841302046DF
:1014900013128DF842108DF843308DF8442001F07E
:1014A000D5FBB86820F07F435948584004F0E6F96E
:1014B000022822D8544B554903F1300E4FF47A528A
:1014C00033F9020F8142B8BF01468242A8BF0246EB
:1014D0007345F5D18B1A052B0FDD80238DF8403035
:1014E0000B128DF84130204613128DF842108DF802
:1014F00043308DF8442001F0A9FB0135022D7FF423
:1015000071AF62E0602B60D1424DDFF828812E463A
:1015100000270DAB33F817206B68D1186B89696011
:101520009342338938BF6A81934288BF2A8145F646
:10153000BF52336801339342336035D9B1FBF3F3C3
:101540006A898DF83D30110A8DF839202A898DF885
:1015500038108DF83B20110AC3F307229AF80030A7
:101560008DF83A10602B8DF83C2016D1E0238DF8D1
:10157000403009238DF8423000230EA9E218595C4F
:101580000133062BD170F8D10921234B20468DF869
:10159000411098470023C8F800304FF6FF7200232F
:1015A00033607360328173810137022FB1D10CE057
:1015B0001A48834209D992F82033C2F81C1383F0E9
:1015C000010382F82033164A1360164B164D1B7820
:1015D00023B12B78012B01D101F03CFD134B1B787B
:1015E00063B32B78022B29D1114B1B7823B300F066
:1015F00091FD23E012070020F3020020F5020020F5
:101600008C28002068B4AA009628002080C1FFFF23
:10161000974B55007C280020150700207FA9030068
:1016200090812142F4020020C81F0020F008002011
:10163000F10200201800274201F0F2FBBC4B1F789A
:10164000002F77D02B78032B74D1BA4E304604F09C
:1016500006F8344630B9B6F8EC341BB9D6F8F8348D
:10166000002B67D0B6F8EC34DFF8C88253B9404697
:1016700003F0F5FF002840F0F483B6F8EC64002E88
:1016800000F0CB8301F0A6FB0646AB4FDFF8D48217
:10169000DFF8D492142E4DD9B4F8EE3440F2657EC2
:1016A0005A1C2344A4F8EE2493F83C2094F8F23416
:1016B00040F2772C002B16BFBB46C346CA469F4B51
:1016C00016BF4FF46D7E9A464FF49E7C002302F0C5
:1016D000C00080280EA900F09D83C02800F09783E9
:1016E00000280CBF5846504621F8130001339200E1
:1016F000042BD2B2EBD110AA914806F069F800236E
:10170000142210A9032001F0DFFA8E4B143E1B783F
:10171000B6B21BB1D4F8F434C4F8F834B4F8EE140B
:10172000B4F8EC24834B9142B4D30022A3F8EE2406
:10173000A3F8EC24844B1B7823B12B78042B01D124
:1017400005F0B0FD814B1B7823B12B78052B01D11F
:1017500004F0D8FC7E4B1E78B6B12B787D4C062B5E
:1017600006D0B4F838321BB9204603F078FF58B1E0
:10177000784F384603F073FF002840F0A583B7F890
:101780003832002B40F0A0832B78632B40F035815A
:10179000714C01F05FFC2378002B00F02E816F4824
:1017A00003F07DFF0D23B0FBF3F0C0B2042840F23C
:1017B00024816B49002310A85A5C1A5401330C2B66
:1017C000FAD162881521B2FBF1F301FB13239BB21E
:1017D000002B00F00781012A04D130238DF8493015
:1017E000022305E0022A07D134238DF8493019235A
:1017F0008DF84A30DE23F3E0032A04D131238DF83B
:1018000049306F23F4E7042A07D11F238DF84930AC
:101810002B238DF84A30F623E2E0052A04D1322347
:101820008DF8493022230FE0062A07D124238DF8B2
:1018300049302A238DF84A30E023D1E0072A07D126
:1018400033238DF849303B238DF84A30B323C7E06A
:10185000082A00F09780012B07D125238DF8493005
:101860004F238DF84A309323BAE0022B07D170231F
:101870008DF849300B238DF84A30DA23B0E0032B82
:1018800001D1252310E0042B04D133238DF84930F6
:101890001B23D9E7052B04D125238DF849306F236D
:1018A00041E0062B04D139238DF849301D2377E020
:1018B000072B07D125238DF849300C238DF84A30AA
:1018C000C7238DE0082B04D150238DF849306F23B6
:1018D00008E0092A00F04883092B07D125238DF859
:1018E00049301E238DF84A30D02379E00A2A00F0CF
:1018F0003E830A2B07D121238DF849300C238DF824
:101900004A30C2236CE00B2A00F034830B2B01D148
:10191000252338E00C2A00F030830C2B26D13D2300
:101920008DF8493002238DF84A30D72358E000BFA4
:1019300012070020CC280020C4FEFFFF9BF8FFFF09
:10194000DC280020F1020020F3020020F502002034
:10195000F2020020DC8F002088280020D4250020FF
:10196000F893000889FDFFFF4CFCFFFF0D2A00F0F3
:1019700007830D2B01D1252337E70E2A00F00383BF
:101980000E2B04D150238DF849306F235CE70F2ACA
:1019900000F010830F2B07D125238DF849301B232E
:1019A0008DF84A30D6231BE0102A0BD0102B07D11C
:1019B00023238DF849301B238DF84A303A230FE05A
:1019C000112A06D0112B04D121238DF8493025236B
:1019D00003E016238DF8493029238DF84A30F5238A
:1019E0008DF84B3001F000FB40F276216388013323
:1019F000B3FBF1F201FB123363802B78622B07D02B
:101A00005F2B05D05E2B10D05C2B40F0F0809DE06A
:101A10009A4B1A789A4B2AB1052283F84C2000F091
:101A200079FBE4E083F84C20E1E000F073FB95489B
:101A300003F035FE2323B0FBF3F010F0FF0F00F0AE
:101A4000D6808E4C6378013B032B00F2C980DFE81F
:101A500003F0021C5761012000F01CFC8A4803F0CF
:101A600035FB2221894803F065FB854B012283F871
:101A70004C200022C3F8DC20C3F8E020C3F8E420A7
:101A800083F8E82083F8E92076E094F82A00DFF86C
:101A900030E2C0EBC0000EEB00014B78A27DE37595
:101AA0008B78764E2376CB7863760B79A3764B7959
:101AB000E376237F03F00F0722F00F031EF80020C8
:101AC00006F1080002F00F021A438B79222123F05D
:101AD0000F033B432377A27503F02CFB94F82A30C5
:101AE000052B09D1002386F82A303378002B7ED1CC
:101AF000624B03225A707AE0013386F82A3076E08E
:101B00002221634803F016FB5D4BD3F8DC306360A1
:101B1000042366E05A4A6368D2F8DC001E3383422D
:101B2000564964D20023138382F84C305383C2F8A1
:101B3000DC30C2F8E030C2F8E43082F8E83082F8F5
:101B4000E930137781F82A304B7050E001F068F9E2
:101B5000504803F0A4FD2323B0FBF3F010F0FF0F77
:101B600045D0464C6378022B08D0032B35D0012B8F
:101B700039D1494801F092F8022332E094F82A0062
:101B8000464BC0EBC00019184A78277FE2758A7867
:101B900007F00F072276CA7862760A79A2764A7928
:101BA000E276A27D22F00F061A5C8B7902F00F021A
:101BB00023F00F033B43324304F108002377A2755F
:101BC00001F06CF894F82A30052B04D1002384F836
:101BD0002A3023788AE7013307E0314801F05EF8C4
:101BE0000023637003E00023637084F82A302B78AD
:101BF0005D2B21D105F056FB2A4803F050FDD82378
:101C0000B0FBF3F010F0FF0F16D0274C6378012BD8
:101C100002D0022B06D00DE0D921244805F022FB8A
:101C2000022308E0D921224805F01CFB237813B1D8
:101C3000012300E0002363702B785B2B45D104F077
:101C400061FA1C4803F02BFD3023B0FBF3F010F0D9
:101C5000FF0F3AD0184C6378012B33D1174BA27881
:101C6000312000FB023004F037FAA378013303F08F
:101C70000303A370237843BB637026E0C82D0020C4
:101C800038410020484100202A870008BD8600080E
:101C9000E08A0008CC1F002008870008028B00089B
:101CA0002C8B0008D8A800207828002030000020C5
:101CB00018020020508A0020F42D00204E8B0008CE
:101CC000128C000800236370A3702B78002B7EF425
:101CD00022ABC04CB4F8E833002B3EF41CAB01F04F
:101CE00079F80546BC4E182D7EF615ABB4F8EA33EC
:101CF0006120D91003F00702B25C635C183D134009
:101D00001BBF002318221822B44908BFB44900F0B1
:101D1000DBFF94F8EC33ADB20133DBB2312BAD4ACB
:101D200084F8EC3307D9B2F8EA330133A2F8EA3386
:101D3000002382F8EC33B4F8EA13B4F8E823A54B97
:101D40009142D0D30022A3F8EA23A3F8E823FEF7B8
:101D5000E2BA0420FFF71BB905242146A14832E06E
:101D60000424FEF768BF0424FEF77BBF022402E0D0
:101D7000042400E0052421469B4824E00424FEF7C7
:101D8000DABF0224FFF73BB80424FFF738B8022477
:101D9000FFF748B80424FFF745B8022402E0042402
:101DA00000E00446214691480DE02B78002B7FF49B
:101DB000F0A80320FFF7E7B8022402E0042400E0C3
:101DC000052421468A4801F0B9F82046FFF7DFB81C
:101DD0000424FFF77FB80424FFF795B80424FFF725
:101DE000ABB82B78002B7FF4D4A80620FFF7CBB834
:101DF000022402E0042400E0052421467D48E2E7B5
:101E0000187094F804237C4B1A60FFF736B921F858
:101E100013E06BE421F813C068E4784BD3F8F8348E
:101E2000002B3FF487AC00F0D5FF0746142F7FF658
:101E300081AC042310AA0EA971480E960F9605F0E6
:101E4000C7FC0023142210A9032000F03DFFD4F8A2
:101E5000F834143F013BBFB2C4F8F834002BE5D18D
:101E600068E4684B1978A1B17827644803F0C2FB95
:101E7000B4F8EC34013F5A1C17F0FF072344A4F8D0
:101E8000EC2483F83C00F0D10023A6F8EE34FFF7F1
:101E9000F4BB0846B8F8F0E4B8F8EC244FF0770C3F
:101EA0001FFA80F802EB0803C6459BB206D87244BD
:101EB00092B20029E8D0A6F8EC24E5E7234483F8A1
:101EC0003CC001303946EBE7B4F8383243BB4D4BE8
:101ED0001B78A3B919464C4AAA27B2F83C028AB229
:101EE000904206D80BB1A4F838020023A4F83A3285
:101EF00016E0224482F8707101313346EFE7442640
:101F0000414803F077FBB4F83832013E5A1C16F012
:101F1000FF062344A4F8382283F87001F0D1E4E7E7
:101F2000B4F83832002B3FF42FAC00F053FF0646D4
:101F3000A02E7FF629ACB4F83A32A03E5A1C2344B6
:101F400093F87001A4F83A2204F09CFFB4F83A2206
:101F5000B4F838322C4F9A42B6B2E9D30023A7F82E
:101F60003A32A7F838320FE40A2B0FD1C3E40B2B17
:101F700010D1CDE40C2B11D1D1E40D2B12D1FAE408
:101F80000E2B13D1FEE40F2B14D105E50B2B7FF4A0
:101F9000C4ACBDE40C2B7FF4ECACC0E40D2B7FF49F
:101FA000EFACE8E40E2B7FF4F5ACEBE40F2B7FF401
:101FB000FDACF1E4102B7FF405ADF9E45D2B7EF46C
:101FC000A8ADF3785A1E53425341104A1370FEF7DE
:101FD00087BD00BF244200209A9600080000002020
:101FE00084090020718A0008CE890008848A0008CC
:101FF0009F8A0008C38A0008B0812142CC280020B3
:10200000DC280020140D0020DC8F00207828002020
:102010005D2B7EF47EAD024B1870FEF77ABD00BFDB
:102020007828002070B5E0238EB08DF80430C4B25B
:1020300010238DF80630C4F10306C3B29A191B1B96
:10204000DBB29942D2B206D910F8015B0EAB134451
:1020500003F8345CF1E70331C9B201A8044B8DF8F1
:1020600005109847034B00221A600EB070BD00BFE8
:10207000150700201800274270B5154B86B01B7855
:10208000012B23D8134B1B7803B3E0238DF80430C6
:10209000C4B211238DF80630C4F10306C3B29A19F5
:1020A0001B1BDBB29942D2B206D910F8015B06AB1A
:1020B000134403F8145CF1E70331C9B2064B01A8DD
:1020C0008DF805109847054B00221A6006B070BDC8
:1020D000C81F0020F4020020150700201800274226
:1020E00010B50B4CB4F85C1349B1D4F85833B3FBBA
:1020F000F1F3C3F30721017343730E2100E00C21B8
:10210000FFF7BAFF0023C4F85833A4F85C3310BDBE
:10211000B40900202DE9F043594C93B094F84C30A9
:10212000002B00F0A980B4F8D820002A4FD1013B41
:10213000042B45D8DFE803F003440E081300002009
:1021400003F028F8042340E00021012003F062F8A6
:1021500003233AE0012003F01DF8022335E0494B48
:102160001B78622B0CD1484B5F2003F12102002128
:1021700003F8010F934203F8281CF9D1212319E039
:102180005F2B19D1404B5520DA1D002103F8010FB8
:102190009A4203F8281CF9D15F2384F8B6303B4BF0
:1021A000FF20DA1D002103F8010F9A4203F8281CD2
:1021B000F9D10F23A4F8D8300023A4F8DA3006E0D0
:1021C0000121002003F026F8012384F84C30B4F8F4
:1021D000D830002B50D000F0FDFD06464FF4E378D8
:1021E000142E49D9B4F8DA204FF6AE20A11891F890
:1021F000AF3091F887904FF63A6E40F2525101326B
:10220000A4F8DA20002503F0C002802A01AF0BD029
:10221000C02A06D0002A0CBF7246024627F81520B5
:1022200004E027F8151001E027F8158001359B0020
:10223000042DDBB2E7D11422002103A805F046FFEC
:102240002B4608AA394612488DF8169005F0C0FAB8
:1022500003AB142208A9022000F036FDB4F8DA100E
:10226000B4F8D820143E9142B6B2054BB8D3002240
:10227000A3F8DA20A3F8D82013B0BDE8F08300BF9C
:1022800038410020C81F0020E6410020EE41002018
:102290005841002010B5174B174A03F1200153F89D
:1022A000044B8B4242F8044BF9D11B7800011370A8
:1022B00040F00900114BC0B233F810301049DCB2C5
:1022C0009B0A8008A20803F03C0381F8590043EA06
:1022D000841302F0300002F00F0240F04D0062F073
:1022E0002F0243F0030381F85A0081F8602081F83F
:1022F000613010BDCF91000885410020F8910008A1
:1023000038410020064B00221A601A715A719A60F7
:102310001A675A67C3F85823A3F85C23704700BFB5
:10232000B40900202DE9F04FC24CA9B0254626463D
:102330008B1E0293831E03938B1C0693029A32F822
:10234000023F0292D4F858231344C4F85833B4F827
:102350005C330133A4F85C33039B33F9022F0393FE
:102360002379D10F8B4209D02368B3F5004F2ABFE0
:102370006FF4CC7803F29913434423602B682971DE
:1023800003F54C513331B1F5803F01D22160C9E3EF
:10239000A3F54C43CD3B23606379012B54D003D389
:1023A000022B00F00B83BDE3A368002A4FEA43032E
:1023B000B8BF43F00103A360AF689F4827F07F4791
:1023C000784003F05BFA02280FD89C4801F058FAD5
:1023D000532200219A4805F079FE00232367C4F8B0
:1023E0005833A4F85C3301232CE09648784003F07E
:1023F00045FA8046002840F09583934801F040FA62
:10240000012001F0ADF9914B012283F82123904B7B
:102410008B4F18685968C4F8588303C79868A4F8A4
:102420005C833860A7F10800FFF75AFE0E22414690
:10243000A7F1080005F04AFE4FF416536367C4F88D
:102440007080022363716DE3A368002A4FEA43039F
:10245000B8BF43F00103A3602B6F002A4FEAD301FA
:10246000B4BF7C4F7C4F03F0070204EB0100B5BF03
:10247000BF5CBF5C027B027B03F10103B4BF3A4344
:102480003A402944B3F5257F0A732B6740F04A830D
:10249000724A734F002312F8010FD95D0133414096
:1024A000532B1170F7D10023194613AA9954013305
:1024B000542BFAD16B4B00228021B2F5257F0BDB28
:1024C0000022EA67C5F88020C5F88420C5F8882076
:1024D000AA67DFF89481C9E005EBE200007BC7073B
:1024E00010D513F812700DF1A00E774403EB420ED5
:1024F0009EF801E021FA0EFC17F854EC4CEA0E0E9F
:1025000007F854EC870712D502F1010E13F81E707C
:1025100003EB4E0E0DF1A00C9EF801E0674421FA8A
:102520000EFC17F854EC4CEA0E0E07F854EC470773
:1025300012D502F1020E13F81E7003EB4E0E0DF1D0
:10254000A00C9EF801E0674421FA0EFC17F854EC49
:102550004CEA0E0E07F854EC070712D502F1030EF1
:1025600013F81E7003EB4E0E0DF1A00C9EF801E067
:10257000674421FA0EFC17F854EC4CEA0E0E07F8EB
:1025800054EC171DB7F5257F01DB3A4695E710F0AF
:10259000100F0FD013F817E003EB47070DF1A00C55
:1025A0007F78E64421FA07FC1EF8547C4CEA0707C2
:1025B0000EF8547C870612D502F1050E13F81E7032
:1025C00003EB4E0E0DF1A00C9EF801E0674421FADA
:1025D0000EFC17F854EC4CEA0E0E07F854EC4706C4
:1025E00012D502F1060E13F81E7003EB4E0E0DF11C
:1025F000A00C9EF801E0674421FA0EFC17F854EC99
:102600004CEA0E0E07F854EC000610D5D71D13F84F
:10261000170003EB47070DF1A00E7F78704421FAF5
:1026200007FE10F8547C4EEA070700F8547C083285
:1026300043E700BFB4090020507655000494000819
:10264000C009002068B4AA0026940008981C002045
:10265000F8930008F0910008C7910008BF09002016
:10266000649100083C8C0008BF91000828AB03EB84
:10267000E20313F8540C802102F00703D9404027ED
:10268000014027FA03F314BF4FF0010C4FF0000C88
:102690000340B1FA81F1B3FA83F314BF4FF0010E96
:1026A0004FF0000E49095B0901EB030A0CEB0E0920
:1026B00071446344D4F884E0D4F87CC00AEB0E0B78
:1026C00009EB0C075F453846A8BF58460593A36F32
:1026D0005F45019304914FEAD3030199A8BFB04F1E
:1026E000079003F1220004EB800001F00701B5BF61
:1026F000476817F801B018F801B04768CE44D444D1
:10270000B4BF07EA0B0747EA0B07F445E346A8BF47
:10271000F346F4454760A8BFA14803F14C0704EB1A
:102720008707B5BF786810F801E018F801E078680D
:10273000B4BF00EA0E0040EA0E007860D4F880C012
:102740000498D4F888E000EB0C070598B94670446B
:102750008742A8BF81468742A8BF914803F1760708
:1027600004EB8707B5BF786810F801A018F801A03E
:102770007868B4BF00EA0A0040EA0A007860059869
:10278000A03360448446049805EB83037044864676
:10279000F4456046A8BF7046F4451EDA18F801708B
:1027A000596839405960079B0232EB67019BB2F5CB
:1027B000257F03F10103C5F880B0C5F88490C5F802
:1027C0008800AB677FF452AF75480023194640F28A
:1027D00049128646DFF8E0C104E0714F7F5C59681A
:1027E0003943DFE703294FD8DFE801F002101D3439
:1027F000D71006EB870702F0070810F80880D7F813
:102800008C7018EA070F18BF022118E0D11006EBF0
:10281000810102F00707D1F83411C75D0F420CBFE8
:102820000021022123E0D11006EB810102F007070D
:10283000D1F8DC11C75D0F420CBF0121032103F069
:10284000070706EBD3081CF8079098F82C7309EAE1
:10285000070716E0D71006EB870702F0070810F805
:102860000880D7F8847218EA070F08BF012103F027
:10287000070706EBD3081EF8079098F82C7349EA6F
:10288000070788F82C73013312F1FF32AAD2002314
:102890001A4608A9CA540133292BFAD140F2491328
:1028A0003F48012706EBE30103F0070C91F82CE306
:1028B00010F80C10C3F5A4721EEA010F02F1010218
:1028C0000ED0D1080DF1200E1EF801E002F0070233
:1028D00007FA02F242EA0E020DF1200E0EF8012074
:1028E00013F1FF33DED21A462E4F002008AB195CDD
:1028F000C2F307235140C9B237F8112001305340C9
:1029000027281A46F2D1DB439DF84710DAB29142EC
:1029100009D19DF84820C3F307239A1A5342534123
:10292000002B3AD001E0002337E0012000F018FF2F
:102930001D4BB6F85C13012283F821231B4A89B191
:10294000D4F85833B3FBF1F3C3F307218DF84910E2
:102950008DF84A301378012B0ED8154B1B785BB1DC
:102960002B2106E01378012B06D8114B1B781BB1E5
:10297000292108A8FFF756FB00270E2239460D48EB
:10298000C6F85873A6F85C7305F0A0FB02237371B8
:102990004FF4165337677367C4E07371C2E000BF2A
:1029A0009A96000890940008981C0020C81F0020E8
:1029B000F4020020C0090020BF910008A368002A8B
:1029C0004FEA4303B8BF43F00103A3602B6F002A13
:1029D000B4BF584F584F4FEAD30103F0070204EB3E
:1029E0000100B5BFBF5CBF5C027B027BD5F80880ED
:1029F0005248B4BF3A433A4029445F1C88EA000079
:102A00000A732F6702F03AFF012821D84C4800F0E2
:102A100037FF002000F0A4FE4A4B002783F8217303
:102A2000494B1B78012B10D8484B1B786BB1E02326
:102A300003218DF84C308DF84D1013238DF84E3056
:102A400013A8434B9847434B1F6000236B7169E009
:102A50005C2F0FD9404828F07F43584002F00EFF0A
:102A6000022807D8602323674FF4165363674FF09B
:102A7000010901E04FF000092B6F602B1AD1B9F169
:102A8000000F17D1DFF8D0B001276FF07F4A2AFA84
:102A900007F303EA08032BFA07F0584002F0EEFEB2
:102AA000022804D8FFB2C7F160072F6702E00137A0
:102AB000042FECD16F6F013F6F67C7B9274800F053
:102AC000DFFE384600F04CFE1E4B83F821731E4B90
:102AD0001B78012BB9D81D4B1B78002BB5D0E023F8
:102AE00003218DF84C308DF84D101223A6E7236F8B
:102AF000602B17D1B9F1000F09D0552363752D2331
:102B0000A37517481623E375FFF7EAFA03E00C21D3
:102B10001348FFF7B1FA0E220021114805F0D6FA4A
:102B200000232B67069B029A93427FF407AC29B0DF
:102B3000BDE8F08FF0910008C79100085E13AAAAC3
:102B400047940008981C0020C81F0020F4020020B1
:102B5000150700201800274268B4AA0067940008EF
:102B6000C009002007B5E0238DF8043070238DF8EC
:102B70000630084B04219B780DEB01008DF80730DF
:102B8000054B8DF805109847044B00221A6003B0DE
:102B90005DF804FBC0240020150700201800274220
:102BA00007B5E0238DF800307F238DF80230094B04
:102BB00005219B788DF804008DF803306846064B9C
:102BC0008DF801109847054B00221A6003B05DF89C
:102BD00004FB00BFC0240020150700201800274276
:102BE00070B5164B9EB01B7813F0FB0F23D1144B1E
:102BF0001B7803B3E0238DF80030C4B230238DF886
:102C00000230C4F10306C3B29A191B1BDBB299420E
:102C1000D2B206D910F8015B1EAB134403F8785CFE
:102C2000F1E70331C9B2074B68468DF801109847A8
:102C3000054B00221A601EB070BD00BFC81F0020E7
:102C4000F3020020150700201800274200B5104BA2
:102C5000A3B01B78632B17D1E02308228DF8043032
:102C600022AB03F8822D421E043012F8011F82426B
:102C700003F8011FF9D10821064B01A88DF80510B2
:102C80009847054B00221A6023B05DF804FB00BF93
:102C9000C81F0020150700201800274238B5044639
:102CA000084802F0FCFC20280AD904F1210514F898
:102CB000011F044802F0B2FCAC42F8D1002038BD3C
:102CC000052038BDCC1F00202DE9F84F3D4C98461B
:102CD000237889469246002B72D094F82C33002B2F
:102CE0006ED1394B1A7832B901221A7094F8043334
:102CF0005340364A13600138052816D8DFE800F043
:102D00000306090C0F12B4F90A6310E0B4F90C635E
:102D10000DE0B4F90E630AE0B4F9106307E0B4F90A
:102D2000126304E0B4F9146301E0B4F90863254DBB
:102D300000274FF0010B574542D039F91730B4F84E
:102D400018137343DB1303F30F03194489B2B1F56E
:102D5000805F22BFB5F824330133A5F82433B8F1DE
:102D6000000F04D142461A4802F0A6FB26E094F870
:102D7000283003F0FF0213B185F829B01EE0B5F842
:102D800024E0EB691FFA8EFE18F8070023F81E10E6
:102D9000AB8C296A9BB2C854AB8C298B01339BB294
:102DA000AB84AB8C9BB2994298BFAA84A28CE38C73
:102DB00092B29BB29A4208BF85F828B00137BAE7B1
:102DC000BDE8F88F981C0020140D0020B08121422E
:102DD000B01C0020114AD18C938C89B29BB29942CD
:102DE00004D192F828309BB9108B12E0D18C938CCF
:102DF00089B29BB2994206D2918CD08C138B80B24F
:102E00001844401A02E0D38C908C181A80B200E06B
:102E10000020138B834238BF00207047981C00208D
:102E2000F0B5434C8DB0B4F8EC542DB1FFF7D2FFA0
:102E30004FF4E37605460FE0204602F010FC002830
:102E40004DD104E0A4F8EC140023A4F8EE34B4F857
:102E5000EC34002B69D0E9E7142D66D940F25250CA
:102E60004FF6AE274FF63A6EB4F8EE345A1C2344B0
:102E7000A4F8EE2493F83C20002302F0C00180293E
:102E80000BD0C02906D000290CBF714639462DF859
:102E9000131004E02DF8130001E02DF81360013346
:102EA0009200042BD2B2E8D1214F02AA694607F161
:102EB000100004F08DFC0023142202A90220FFF769
:102EC00003FFB4F8EE24B4F8EC34143D9A42ADB2EA
:102ED000C2D30023A7F8EE34A7F8EC3425E0154B55
:102EE0001B785BB9D4F8F0145F209AB2914203F1D9
:102EF0000103A7D9224482F83C00F6E70C4802F00F
:102F000079FB63190135212D83F83C00F6D10A487D
:102F10000023E218195C0133272B82F85D10F8D1E9
:102F2000034B4822A3F8EC248EE70DB0F0BD00BFA0
:102F3000CC1F0020140D0020A297000830B5174BBD
:102F4000A3B093F802313BB3E0238DF80430F223B1
:102F50008DF806300025EBB2DA1CC45CD2B20DF15C
:102F6000880E0135724414B102F8844CF3E708125C
:102F700002F8840C5A1D043322A8DBB2D2B20344F7
:102F800003F8841C01A8064B11468DF805209847CC
:102F9000044B1C6002F0D8FA23B030BDC0240020DE
:102FA000150700201800274238B504460C4802F0E7
:102FB00076FB292805D801B20A48FFF7BFFF052094
:102FC00038BD0021064802F029FB651E283415F89B
:102FD000011F034802F022FBA542F8D1002038BDB2
:102FE000D4250020F19C000838B504460C4802F0B6
:102FF00056FB0C2805D801B20A48FFF79FFF0520B1
:1030000038BD0121064802F009FB651E0B3415F896
:10301000011F034802F002FBA542F8D1002038BD91
:10302000D4250020119D000808B5084802F037FBA0
:10303000014620B90648FFF781FF052008BD02219F
:10304000024802F0EBFA002008BD00BFD4250020A2
:103050002F9D00082DE9F04FC14CB7B0204602F07B
:10306000FEFA20B9B4F89C32002B00F0BB816389D2
:1030700062689BB2D25CBA4D02F0FF03002A40F0B6
:103080002881B5F89C62002E40F02881B54B1B7852
:1030900093B91946B5F8A002AA258AB2904205D87C
:1030A000002B00F03281A4F89C022EE1224482F829
:1030B000445001310123F0E7284602F09BFA3546DF
:1030C000A74802F097FA0DF805000135292DF7D130
:1030D00000231A460DF1800E0BA95A540EEB030182
:1030E0000133532B8A70F7D10023184619469E4F9F
:1030F0004FF0010C1A4603461DF801800D01002611
:103100000CFA06F018EA000F14BF0120002002EBB1
:1031100000091A440244D20709F001090CD505F050
:10312000070217F802B036AA02EBD50212F8ACACCF
:103130004BEA0A0A02F8ACACB9F1000F0ED06A1CD7
:103140000DF1D80909EBD20902F0070217F802A025
:1031500019F8AC2C4AEA020209F8AC2C0136082E08
:1031600005F102051A4601D00346C9E701312A29B3
:10317000C0D1DFF800C2002160460DF182030125B5
:103180000CEB41020732B1F5257F7ED236AE06EB5D
:10319000D10616F8AC6C37060BD512F8079C12F85E
:1031A000067C05FA07F813F8097048EA070703F8E0
:1031B000097077060BD512F8059C12F8047C05FA05
:1031C00007F813F8097048EA070703F80970B7060B
:1031D0000BD512F8039C12F8027C05FA07F813F8D5
:1031E000097048EA070703F80970F7060AD512F8CC
:1031F000019C177805FA07F813F8097048EA0707E1
:1032000003F809700F1DB7F5257F02F1080201D3FD
:103210003946B8E732070BD510F8178000EB47079F
:103220007A7805FA02F713F808203A4303F80820E1
:1032300072070CD54A1D10F8128000EB420252783A
:1032400005FA02F713F808203A4303F80820B707F5
:103250000CD58A1D10F8128000EB4202527805FA54
:1032600002F713F808203A4303F80820F2070AD5BA
:10327000CA1D10F8127000EB4202527805FA02F6ED
:10328000DA5D3243DA5508317AE7384D0DF18102C3
:10329000002312F8010F595D01334140532B117087
:1032A000F7D1EA238DF88030B4F89C12A6238DF86C
:1032B00081300023CA181EF8030092B20133224461
:1032C000552B82F84400F5D1254B5531A3F89C12BB
:1032D0001BE0012B1DD1B5F89C321BB1FFF77AFD25
:1032E000054649E0284602F085F90C25B4F89C62B1
:1032F0001B48731CA4F89C3202F07CF9013D264463
:1033000015F0FF0586F84400F0D10023A4F89E32A2
:1033100020E0022B1ED1B5F89C32002BDED12846CE
:1033200002F068F9B5F89C32114D03F1120080B239
:1033300000229918565D89B201322144062A81F88B
:103340004460F6D106339BB28342F1D1044AA2F81D
:103350009C32DAE7B4F89C32002B43D0BEE700BFC2
:10336000D4250020140D00209A9600084C9D0008DA
:10337000A79D0008C9970008282D33D940F2493687
:103380004FF6B747B4F89E325A1C2344A4F89E2245
:1033900093F844000122002332EA00010BA90CBF7C
:1033A00021F8137021F8136001335200082BD2B2B8
:1033B000F2D10E4E20AA06F1100004F009FA002303
:1033C000282220A90120FFF77FFCB4F89E22B4F840
:1033D0009C32283D9A42ADB2CED30023A6F89E324D
:1033E000A6F89C3237B0BDE8F08F00BFD42500208E
:1033F000124B632183F8701F42F20F7100221A7082
:10340000A3F8182FA3F8162FC3F8242FA3F81A1F18
:10341000A3F81C1FA3F81E1FA3F8201FA3F8221F48
:10342000A3F84C2FA3F86E2FA3F8282F83F82A2F88
:10343000C3F8742FA3F8782F704700BF180D002031
:10344000F0B52C4CA3B094F80241BDF9A070002C4B
:103450004DD0E0248DF80440F5248DF806404FF05F
:10346000000E5FFA8EF4E51C065DEDB20DF1880CDE
:103470000EF1010E654416B105F8846CF1E70812EF
:1034800005F8840C201D22ADC0B2284400F8841C2D
:10349000611DC9B21012294401F8840CA11DC9B2E2
:1034A000294401F8842CE21DD2B219122A4402F8F0
:1034B000841C04F10802D2B22A4402F8843C04F1CC
:1034C000090304F10B01DBB20A342B443A12E4B2D3
:1034D00003F8842CC9B2084B2C4401A804F8847C5E
:1034E0008DF805109847054B1E6002F02DF823B0AB
:1034F000F0BD00BFC024002015070020180027429F
:103500002DE9F04FBDF928C09F1CBDF9248001337F
:10351000DFF8C4902F4CBFB29BB24FF0000ECCF13D
:10352000000A1FFA8EF6BD1EB142ADB24FD909EBAB
:103530004006B6F816B0EE10C8EB0B0B0FFA8BFB7B
:10354000D34505F007050CDA14F805B0955D25EABA
:103550000B05955503F00706DD1014F806B0565D0F
:1035600021E0BBF1000F0CDA14F805B0955D25EAF7
:103570000B05955503F00706DD1014F806B0565DEF
:103580000EE0E34514F805B0955D4BEA0505955549
:1035900003F007064FEAE30514F806B0565D02DAB9
:1035A00026EA0B0601E04BEA0606565500F10A062C
:1035B000B5B2B5F5F06F24BFA0F27675ADB20237A3
:1035C00002330EF1010EBFB29BB22846A9E7BDE857
:1035D000F08F00BF9A960008180D00202DE9FF41DA
:1035E0005B4CB4F8163F04EB43035888C0F3090062
:1035F00080F4A67080F0010002F040F9022800F289
:10360000A380B4F8187F4FF0000E07F22676B6B20A
:10361000B6F5F06F38BF3246754628BFA7F15A029B
:103620004C48DFF838C128BF92B24FF47A5104EB0E
:103630004203B3F916301EF90C809842B8BF184601
:103640009942A8BF1946B8F1010F0AD0B8F1030F8B
:1036500005D0B8F1FF3F06D003EB430303E003EBD3
:103660004303ED1A00E01D4402F10A039BB2B3F5D7
:10367000F06F28BFA2F276720EF1010E28BF93B24E
:10368000BEF10A0F01D01A46D1E7D4F8243F304AE0
:10369000AB4259DA92F8703F632B0AD10B185B10DA
:1036A000A2F84C3FC31A44F63E104343DB13A2F882
:1036B0006E3FB4F96E3FB6F5F06F28BFA7F15A061A
:1036C0000193B4F94C3F28BFB6B23046009303AA29
:1036D00000230A21FFF714FF23789DF80D20002B0B
:1036E0009DF80C301C4983F0CD0382F0F502CF5CCD
:1036F0008B5C9DF80E203B4422F00F0282F090027A
:103700008A5C08BF0120134418BF032003F0FF03A5
:10371000984219D30623A4F8283FB4F8183F0C495F
:1037200003F21B7292B2B2F5F06FA4F81E3F28BFED
:10373000653BC4F8245FA4F81A6F34BFA1F81C2FAE
:10374000A1F81C3F012000E0002004B0BDE8F0819A
:10375000180D002080C1FFFFA29600089096000877
:10376000034B1A7882421CBF024A106018707047DF
:10377000941C00209481214270B5164BA2B01B7896
:10378000052B00D01BBB144B1B7803B3E0238DF833
:103790000430C4B240238DF80630C4F10306C3B22E
:1037A0009A191B1BDBB29942D2B206D910F8015B01
:1037B00022AB134403F8845CF1E70331C9B2074B31
:1037C00001A88DF805109847054B00221A6022B019
:1037D00070BD00BFC81F0020F502002015070020A3
:1037E00018002742F0B5234CA3B094F80241002CF6
:1037F0003DD0E0248DF80440F4248DF806400027E5
:10380000FCB2E51C065DEDB20DF1880E0137754482
:1038100016B105F8846CF3E7081205F8840C201D36
:1038200022ADC0B2284400F8841C611DC9B2101238
:10383000294401F8840CA11DC9B2294401F8842C43
:10384000E21DD2B219122A4402F8841C04F10901C3
:103850000834E4B22C4404F8843CC9B2064B01A8F5
:103860008DF805109847054B1E6001F06DFE23B0E2
:10387000F0BD00BFC024002015070020180027421B
:1038800010B5114BA2B093F80231D3B1E0238DF8FB
:103890000430F1238DF806300023DAB2845CD91CA1
:1038A000C9B2013324B122AA114401F8844CF4E7CF
:1038B000064B01A88DF805109847054B1C6001F0D8
:1038C00043FE22B010BD00BFC02400201507002019
:1038D00018002742174B12221A60A3F580531A686A
:1038E00042F410221A601A6813499003FBD54A6803
:1038F00022F4741242F4E8124A600A6842F08072BC
:103900000A6019680C4A8901FBD5516821F0F00161
:103910005160516821F47C5141F4806151605168DB
:1039200041F0020151605A6802F00C02082AFAD1F3
:10393000704700BF00200240001002402DE9F04F08
:10394000D44A00238BB0136013715371936002F15A
:103950000C0002F1700400F8013BA0424FF000019E
:10396000F9D1CD4B116751679167D167C2F88010CB
:10397000C2F88410C2F8881003F1A80043F8041BB1
:103980008342FBD1002003F1A80143F8040B8B42D2
:10399000FBD1002003F1A80143F8040B8B42FBD1BB
:1039A000002003F1A80143F8040B8B42FBD1002057
:1039B00003F12A0103F8010B8B424FF00004F9D107
:1039C000B64D4FF4B9712846C2F85843A2F85C438B
:1039D00001F087FE05F11C031E462C6105F144022F
:1039E00023F8024B9342FBD1002103F5167203F832
:1039F000011B93424FF00004F9D13C2328222146B9
:103A0000A748A5F8A032A5F89C42A5F89E4204F06C
:103A10005DFB214605232B7403236B82A14BAE6112
:103A20006B61A14B1C605C609C60DC601C6103F1FD
:103A3000140203F23C5522F8021BAA424FF0000484
:103A4000F9D142F20F72994D21469948A3F84025C9
:103A5000A3F83C45A3F83E45C3F84445A3F84845C0
:103A6000A3F84A4583F84C4501F076FD01219148C1
:103A700001F072FD4FF4B971284601F032FE4FF4A7
:103A8000B97105F1100001F02CFE05F12C031F4661
:103A900021462C6205F14C0223F8021B9342FBD114
:103AA0004FF00003844A85F84C30002002F12101D8
:103AB00002F8010B8A424FF00003F9D17F4C85F8E0
:103AC0006E3004F10C0204F8013B9442FBD1002259
:103AD00004F10C0304F8012B9C42FBD1002204F1F9
:103AE000280304F8012B9C42FBD1002204F1280397
:103AF00004F8012B9C424FF00006F9D1C5F8E060B4
:103B0000C5F8E46085F8E86085F8E9602022314670
:103B10006B48A5F8D860A5F8DA60C5F8DC6004F059
:103B2000D5FA684A0523116885F8203044F8681CE6
:103B30005168092344F8641C31466B84624BAF62C0
:103B40006B62136844F85C3C536844F8583C9368D3
:103B500044F8543C44F8603C5C4B1E605E609E60E0
:103B6000DE601E6103F1140403F6543524F8021BD1
:103B7000AC424FF00002F9D142F20F71A3F8542B7E
:103B8000A3F85C1BA3F8562BA3F8582BA3F85A2BC9
:103B9000C3F8602BA3F8642BA3F8662BA3F8682B5B
:103BA000A3F86A2BA3F86C2BA3F86E2BA3F8702B49
:103BB000A3F8722B83F8742B83F8752B83F8762B7C
:103BC00083F8772B83F8782B83F8792B83F87A2B7B
:103BD0003F4B03F5346123F8022B8B424FF0000575
:103BE000F9D13C4C4FF4B971204601F07AFD04F153
:103BF0001C031E46256104F13C0223F8025B93423C
:103C0000FBD1002103F5966203F8011B93424FF0AC
:103C10000005F9D1F023294620222F48A4F8EC54BE
:103C2000A4F8EE54C4F8F03404F050FA05232374D9
:103C300009236382294B29466361294BA66103F15D
:103C400018001D705D609D60DD601D615D6100F5A7
:103C5000965520F8021BA8424FF00002F9D141F21C
:103C6000DA2102805A5241F2DC2042F20F711952DD
:103C700041F2DE2019521B481446018041F2E22035
:103C8000195241F2E420195241F2E8215A5041F20E
:103C9000EC2129E0B4090020400A0020D4250020AE
:103CA000F0250020860300200085002038410020F8
:103CB00058680020AC76002085410020A7410020F4
:103CC000644100200CA00008240500201C92002064
:103CD000989D0020CC1F0020E81F00203206002005
:103CE000F82D0020D84000205A5241F2EE215A54BB
:103CF000500000F5975001321030102A4FF00001AB
:103D00001C52F5D141F21032C6480C4681520A4687
:103D1000510001F5985101321231102AC1484FF07B
:103D200000055C52F4D141F23233C55241F23433D2
:103D30006322C25441F23833C55041F23C33BA4C8D
:103D4000C5524FF4FA61204601F0CBFC04F11C038C
:103D50001E462A4625613C3423F8022BA342FBD1A0
:103D6000002103F5966203F8011B93424FF0000413
:103D7000AD4DF8D1F023A5F8F03421464FF4965319
:103D800005F11C002022C5F8F434A5F8EC44A5F890
:103D9000EE4485F8F244C5F8F84404F097F921465A
:103DA00005232B7409236B82A04BAE616B61A04B82
:103DB00003F118001C705C609C60DC601C615C613D
:103DC00000F5075520F8021BA8424FF00002F9D178
:103DD00042F2DA1102805A5242F2DC1042F20F71C2
:103DE000195242F2DE10195242F2E010195242F218
:103DF000E210195242F2E410195242F2E61019523E
:103E000042F2E810195242F2EC115A5042F2F0110B
:103E10005A5242F2F21114465A54500000F507501B
:103E200001323430102A4FF000011C52F5D142F219
:103E300014227F480E4681520A46500000F5085071
:103E400001321630102A7A494FF000051E52F4D183
:103E500042F23623CD5242F238236322CA5442F250
:103E60003C23CD5001F509531D8042F24223714C91
:103E7000CD5420464FF4FA6101F033FC04F12802DE
:103E800017462B46256104F1480122F8023B8A427D
:103E9000694EFAD13346002106F1780223F8021B5D
:103EA0009342FBD1002103F5966203F8011B934274
:103EB0004FF00005F9D14FF02008F0234246294683
:103EC0005E48A4F87435A4F87055A4F8725504F04F
:103ED000FDF878222946584804F0F8F805232374A1
:103EE00008236382564B29466361564BA761636280
:103EF000554BA4F81C801A46266202F8025B03F1B7
:103F0000160022F8021B8242FBD1002502F57064E4
:103F100022F8025BA2424FF00001F9D142F20F7287
:103F2000A3F81A2FA3F81C2FA3F81E2FA3F8202FF5
:103F3000A3F8222F454AA3F8161FA3F8181FC3F8A9
:103F4000241FA3F8281F83F82A1F02F1200422F857
:103F5000021BA2424FF00000F9D13D4AA3F84C0FDA
:103F600002F1200122F8020B8A424FF00004F9D13D
:103F7000384D63224FF4FA61284683F8702FA3F876
:103F80006E4FC3F8744FA3F8784F01F0AAFB05F108
:103F900028031F462C6105F1480223F8024B934287
:103FA0002D4EFAD13346002106F18C0223F8021B74
:103FB0009342FBD1002103F5966203F8011B934263
:103FC0004FF00004F9D1F023202221462348A5F820
:103FD0008835A5F88445A5F8864504F077F88C2245
:103FE00021461D4804F072F80A232B7409236B82C2
:103FF0001B4B4FF47A616B611623AB83194B1A4844
:104000002E626B62AF6101F06CFB184821460646D8
:1040100000F5AA7320F8021B9842FBD1002200F1A0
:10402000C80325E0F82D0020CC2800208C060020B5
:1040300014460020D8A8002020A9002000A90020B4
:1040400036030020F6020020180D0020441C00203A
:10405000661C0020508A0020988A0020788A002060
:104060007E050020E6060020DC8F0020F88F00206F
:1040700000F8012B98424FF00005F9D14823A0F534
:104080000E748380458029464FF4AA72A0F507700C
:10409000A4F8385204F01AF8294606232382D84B94
:1040A0006661A361D74B1D601D719D6003F10C0417
:1040B0003C3324F8021B9C424FF00002F9D1D14B53
:1040C000114683F83C20D04B1A705A80CF4B1A709F
:1040D0005A705A6003F1080003F12A0200F8011B2C
:1040E0009042CA4BFAD1002283F82A20C84A0833EA
:1040F00002F120051C4610685168083203C4AA4228
:104100002346F7D1128800234FF6FF7122801C4608
:10411000C04AC14813705370C04A137053709370F3
:10412000BF4A13605360118153811C540133B3F5AE
:104130007A7FB9494FF00002F7D11346A1F8E8237E
:10414000A1F8EA2381F8EC231946B64A99540133C1
:10415000B3F5807FB3484FF00005F7D1B24C4FF470
:10416000B9714FF4167680F8005180F8015180F84B
:10417000025100F5827001F0B4FA2582A6806582B2
:10418000657525754FF49660257003F015FFA060E6
:10419000304603F011FF4FF4FA77A584E060E58420
:1041A000278384F8285084F829504FF47A7003F05C
:1041B00003FFE061384603F0FFFEA5862062E58636
:1041C000A68584F8385084F839504FF4966003F08F
:1041D000F3FE10222063294604F13C0003F076FF31
:1041E000294604F1980304F5927223F8021B9342C6
:1041F000FBD1002103F1500223F8021B9342FBD1B3
:10420000002103F13C0223F8021B9342FBD1002161
:1042100003F1DC0223F8021B9342FBD1002103F1DE
:10422000780223F8021B93424FF00005F9D14FF4B6
:1042300080437E4E0127A4F80633A4F80833A4F87F
:104240000A33A4F80C33A4F80E33A4F81033A4F8FE
:104250001233A4F8143329464FF400638C227448B7
:10426000A4F81633A4F8183384F80453C4F81C5384
:1042700084F82153A4F82253A4F82453C4F82853F3
:1042800084F82C5306F1500B84F8207303F01EFFC2
:1042900029465022304603F019FF06F18C0A2946C0
:1042A0003C22584603F012FF06F5B4792946DC2279
:1042B000504603F00BFF29467822484603F006FFDC
:1042C000A6F1D803294610221846019303F0FEFEFA
:1042D000019BE6662364574B4FF00C0863642A2366
:1042E000A4F85C30A6F18C032366534B0626636664
:1042F000524B84F848502367514BA4F87460E3672D
:104300005223A4F880304F4BC4F884A0C4F88830FE
:104310002023A4F88C304C4BC4F89090C4F894300F
:10432000E763A4F86880C4F878B0484CDFF828A1A7
:10433000A369DFF82891464A43F03D03A3614FF09B
:104340008833C9F800304146C9F804305046C9F8EE
:104350000C50CAF80030CAF80430CAF80C50136088
:104360005360D560C2F80034C2F80434C2F80C546B
:10437000022201F0FFF902220521504601F0FAF96C
:1043800002220421504601F0F5F908220D21504681
:1043900001F0F0F902220721504601F0EBF9314615
:1043A0000222504601F0E6F902220821504601F0AF
:1043B000E1F902220921504601F0DCF902220A212A
:1043C000504601F0D7F902220B21504601F0D2F9F4
:1043D0002A462946504601F0CDF92A46394650462C
:1043E00001F0C8F92A4604211A4D484601F0C2F9E5
:1043F00004220F21484601F0BDF96B6830E000BF90
:104400000C0500208C28002088280020C82D0020C2
:10441000D09D00087828002024420020F42D0020A0
:104420007C280020C0240020981C0020BC1D0020F7
:10443000301D0020F404002060040020A4030020AC
:1044400018050020BC030020B40400200010024026
:104450000010014000000140000C01400008014034
:104460000A2223F4407343F480736B6009214846A9
:1044700001F080F904220A21484601F07BF96B68BB
:10448000634E23F0E06343F000736B60636805F5EF
:10449000205523F4404343F400436360A36940463E
:1044A00043F40073A361A36943F48063A3614FF4F1
:1044B000C02373604FF0807333614FF000632B6152
:1044C0000823736309236B63B1683943B160A9683A
:1044D0003943A96001F061F933462A46B16841F0D9
:1044E0000401B16099684907FCD49368494943F0D5
:1044F000040393608B68474A13F00407FAD14449D8
:10450000454D8B68012643F001038B60936843F0AF
:1045100001039360E36943F00053E3613F4B03AC55
:104520001E600FCD0FC495E807003B4684E80700E6
:1045300003AC54F823200133072B1660F9D1384E11
:10454000092100250222374801F014F93560364868
:1045500001F023F9B0462B46294654F823200133B5
:10456000072B4FF000061160F7D101252F48C8F83E
:1045700000502F4F01F011F9C8F800602D4801F0EC
:104580000CF90DF12409C8F800503D60294801F0EC
:1045900004F923681E6054F8043FA1451D60F5D15D
:1045A00005254FF0000A0126224801F0F6F8D9F857
:1045B000003015F1FF35C3F800A059F8043D4FF065
:1045C00000041E60F0D21B4801F0E7F83C60194877
:1045D000C8F8004001F0E1F80123C8F800300A22D1
:1045E0000921104801F0C6F8134801F0D6F8134E1F
:1045F000062584F001043C60FA203460013D01F09E
:10460000CCF815F0FF05F4D10BB0BDE8F08F00BF7A
:104610000024014000280140B49D000800740040BF
:10462000A401214200080140003E490000A60E00FE
:104630009081214200530700009F24009481214271
:104640002DE9F04FBDF928C09F1CBDF9248001332E
:10465000DFF8C0902E4CBFB29BB24FF0000ECCF1F1
:10466000000A1FFA8EF6BD1EB142ADB24ED900F15E
:104670000C0639F816B0EE10C8EB0B0B0FFA8BFBDB
:10468000D34505F007050CDA14F805B0955D25EA69
:104690000B05955503F00706DD1014F806B0565DBE
:1046A00021E0BBF1000F0CDA14F805B0955D25EAA6
:1046B0000B05955503F00706DD1014F806B0565D9E
:1046C0000EE0E34514F805B0955D4BEA05059555F8
:1046D00003F007064FEAE30514F806B0565D02DA68
:1046E00026EA0B0601E04BEA06065655461DB5B212
:1046F000B5F5166F24BFA0F65B15ADB202370233D5
:104700000EF1010EBFB29BB22846AAE7BDE8F08FBA
:104710009A960008F82D002070B4164D01462E46DA
:10472000B5F85A3B4FF407743C339BB200225D1C32
:1047300006EB4300ADB2B5F5B46FB0F87C0B04F1F5
:10474000FF3428BFA3F29F53A4B2024428BF9DB2F6
:104750000CB12B46EBE74FF40773B2FBF3F270BCDE
:10476000C2F3072381F8232081F82230242201207C
:1047700002F0E0BF1C92002070B5164BA2B01B786F
:10478000032B00D01BBB144B1B7803B3E0238DF825
:104790000430C4B220238DF80630C4F10306C3B23E
:1047A0009A191B1BDBB29942D2B206D910F8015BF1
:1047B00022AB134403F8845CF1E70331C9B2074B21
:1047C00001A88DF805109847054B00221A6022B009
:1047D00070BD00BFC81F0020120700201507002071
:1047E000180027422DE9FF4141F2D8235D4C5E4875
:1047F000E35A04EB83035B68C3F31303584001F0EF
:104800003DF8032800F2AA8041F2DA23E75A4FF07C
:10481000000E07F60116B6B2B6F5166F38BF32466F
:10482000754628BFA7F15F025048DFF844C128BF92
:1048300092B24FF47A5102F10C0334F913301EF99D
:104840000C809842B8BF18469942A8BF1946B8F1E3
:10485000010F0AD0B8F1030F05D0B8F1FF3F06D021
:1048600003EB430303E003EB4303ED1A00E01D44B5
:10487000531D9BB2B3F5166F28BFA2F65B120EF163
:10488000010E28BF93B2BEF1140F01D01A46D2E731
:1048900041F2E823E358334AAB425FDA41F2343362
:1048A000D35C632B0CD10B1841F210315B105352C7
:1048B000C31A44F63E1041F232314343DB135352E4
:1048C00041F23233E35EB6F5166F019341F21033D5
:1048D00028BFA7F15F06E35E28BFB6B202AF30463D
:1048E00000933A4600231421FFF7AAFE2378DFF84D
:1048F00084E0002B4FF000031A46DFF87C800CBFE9
:104900000220042017F803C013F8081001338CEAC2
:1049100001011EF80110052B0A44D2B2F2D18242E5
:104920001CD841F2E822A55041F2EC22A35241F2F8
:10493000DA230C49E35A01F59752138041F2DC2245
:1049400041F2DE20A65203F6FB0292B2B2F5166FD8
:104950002ABF653B0A520B52012000E0002004B040
:10496000BDE8F081F82D0020ADB5070080C1FFFF44
:10497000369E0008A296000818A000080D4B13B53B
:104980001B7813F0FD0413D10B4B1B7883B1E0238C
:1049900000288DF8043014BF1B23192303218DF840
:1049A000063001A8054B8DF805109847044B1C6094
:1049B00002B010BDC81F0020F0080020150700201D
:1049C000180027422DE9F047B74C8CB02546A0F1DE
:1049D0000209A1F1020A00F10208B4F8561B3AF8E4
:1049E000022F04EB410339F9020FA3F87C2BB4F832
:1049F000542B988254F8223000284FEA4303B8BF62
:104A000043F0010344F8223095F8783B0BB90120BC
:104A10001AE0B4F8580B00F29F539BB2B3F5B46F91
:104A200000F1010292B224BF00F1FF339BB2B2F554
:104A3000B46F24BFA0F29F5292B2934207D2994220
:104A400008D3914206D8002002F03EFD02E09942D0
:104A5000F7D3F8E7B5F8562BB5F85C3B934240F036
:104A60000181B4F9662BB4F9646BB4F96C7B16441C
:104A7000B4F9682B03F212301644B4F96A2B80B2F1
:104A80001644B4F96E2BB0F5B46F1744B4F9702B1B
:104A900028BFA3F28E201744B4F9722B46F38F0679
:104AA000174494F8752B47F38F078DF80C2028BF17
:104AB00080B208238DE8C00003AA842102F09CFC88
:104AC00095F8753B402B79D10DF10B030DF10A02DE
:104AD0000DF10D0102A800F011FE94F8772B9DF85E
:104AE0000A309A4240F0B98000239DF80C2084F8E7
:104AF000763B84F8793B9DF80B301A438DF80C20F7
:104B00000A2B4ED8DFE803F0312B434D4D4D0617ED
:104B1000174D17003B463246B5F9581B6348FEF760
:104B200061FE03A8FFF7F8FD022385F8783B002318
:104B300085F87A3B91E095F8783B022B40F08D8028
:104B40003B463246B4F9581B5948FEF74BFE03A8C2
:104B5000FFF7E2FD9DF80B3084F87A3B7DE03B46A1
:104B60003246B5F9581B534808E095F8783B012BBD
:104B700009D13B463246B4F9581B4F48FEF732FE86
:104B800003A8FFF7C9FD012385F8783B65E095F898
:104B9000783B012B61D13B463246B4F9581B47485C
:104BA00004E03B463246B5F9581B4548FEF71AFE6D
:104BB00003A8FFF7B1FD02F009FC4EE0202B12D153
:104BC0003B463246B4F9581B3E48FEF70BFE03A89D
:104BD000FFF7A2FD012384F8783B002384F8763B9D
:104BE00084F8793B39E094F8783B002B35D094F881
:104BF000763B0133DBB20C2B84F8763B04D90120E1
:104C0000FFF7BCFE02F0E2FB95F8783B012B18D1D0
:104C100094F8793B2222042B8DBF20230133DBB291
:104C20008DF80C3003A988BF00234FF001008EBF20
:104C300084F8793B84F8793B8DF80C3002F07AFDEA
:104C40000BE0022B09D194F87A3B33B143F04003D7
:104C500003A88DF80C30FFF75FFD0023C5F8603B1B
:104C600085F8753BB5F8563B01339BB2B3F5B46F8D
:104C700028BF0023A4F8563BB5F8543B01339BB240
:104C8000042B88BF0023C845A4F8543B7FF4A5AE8D
:104C9000054B93F8780B003018BF0120FEF760FD3C
:104CA0000CB0BDE8F08700BF1C9200204A9E0008AF
:104CB0007B9E0008AD9E0008DF9E0008149F000840
:104CC0004A9F0008749F000841F2DA21184B002225
:104CD0005A5241F2D8215A5241F2E8215A5041F237
:104CE00034316320585442F20F7141F2DC201952E2
:104CF00041F2DE20195203F59750018041F2E22083
:104D0000195241F2E420195241F210315A5241F243
:104D100032315A5241F2EC215A5241F2EE215A54A8
:104D200041F238315A5041F23C311A705A527047B0
:104D3000F82D00202DE9F04F831EA7B00393A24F5A
:104D40008B1E0493831C059307F1020A039B0499AD
:104D500033F9022FDFF8B492039331F8023F09F1DF
:104D600004080491D9F80010984E0B44C9F800309B
:104D70003988B8F8003006EB81010133A8F800301B
:104D80004B68002A4FEA4303B8BF43F001034B606E
:104D9000BAF80030B34603F10C0126F8112032783E
:104DA0008B4C012A40F0368121896289914206D2DA
:104DB0008B4207D3934205D8FFF714FD02E08B42E4
:104DC000F8D3F9E7834B21881A88914240F05B8140
:104DD000DA89052A12D15B8803F65F1292B2B2F526
:104DE000166F28BF03F1FF3222815A1C92B2B2F52E
:104DF000166F2ABFA3F65F1362816381764B774AF1
:104E00004FF47A5C1888114663464FF4F07500F150
:104E10000C0E3BF91EE0BEF1000F06DD7145B8BF78
:104E200071467345A8BF734605E0F445A8BFF44634
:104E30007245B8BF724600F1050E1FFA8EFEBEF530
:104E4000166F05F1FF3528BFA0F65B10ADB228BF85
:104E50001FFA80FE0DB17046D9E71944624449102B
:104E600052108D186D100FFA85FB4D1B2DB25B464D
:104E700012B209B200955A48FEF7E2FA5949534A6C
:104E80000B78632B0BD1584AA1F1460323F802BFDC
:104E90009A425D84FAD1534B00221A700DE003F65A
:104EA000781022F810B003F688100133DBB202EB61
:104EB00040020F2B55800B70EDD800231A46DFF807
:104EC00050B1ABF80030ABF82230ABF12201ABF1BE
:104ED000020531F8020F0244488C8D42034412B29D
:104EE0001BB2F6D1414D12111B1135F9521C40482D
:104EF000ABF800202B80FEF775FCB5F9003035F8D3
:104F0000560C0193BBF9003007AA00934FF4F071DF
:104F10000823FFF795FB35F846BC0BF1FF3B1FFA62
:104F20008BFB25F846BCBBF1000F2AD13148FEF7B8
:104F3000A7FC5846FEF714FC2F4B83F821B32F4BE8
:104F40001B78032B00D08BB92D4B1B7873B1E0235A
:104F50008DF81830212303218DF81A3006A8294B2B
:104F60008DF819109847284B00221A6042F20F71F1
:104F7000184A002311806321337082F8561013748D
:104F80001FE0ABF10403D3F1000BB8F800204BEBAA
:104F9000030B8DF81CB05AB1D9F800307B21B3FB5C
:104FA000F2F3C3F307228DF895208DF8963000E0D8
:104FB000792107A8FFF7E0FB0023C9F80030A8F823
:104FC000003045F84A3C5EE0D0400020F82D00203B
:104FD000D2400020D6400020D440002080C1FFFFF6
:104FE000A49F00082C410020064100202A410020F7
:104FF000C49F0008EB9F0008981C0020C81F0020D9
:105000001207002015070020180027423041002019
:1050100008410020FFF7E6FB88B1237D7BB9012022
:10502000C9F80030A8F80030FEF79AFB224B0122A5
:1050300083F82123632384F85A3005232375237DC5
:1050400013B11E4A013B1370237D012B1BD11C4958
:105050000B8803F65F1292B2B2F5166F28BF03F108
:10506000FF324A805A1C92B2B2F5166F154924BF1E
:10507000A3F65F130B804FF0010333704FF0000372
:1050800038BF0A8023752388059A01339BB2B3F594
:10509000166F28BF0023AAF800300B4B1B88013382
:1050A0009BB2042B88BF00233B80039B93427FF479
:1050B0004DAE27B0BDE8F08F981C0020E6400020E0
:1050C000D8400020DC400020D0400020164AF0B537
:1050D0000023164F164DC2F87B30C2F87F30C2F85D
:1050E000833003F0070EDC10065DD95D15F80E4025
:1050F000013326424FEAE10401F007010BBF6E5C69
:105100001619111915F801E00BBF91F87B1096F8EC
:105110007B10B1434EEA01011444442B84F87B1008
:10512000DFD10020F0BD00BF38410020F29D000813
:105130009A960008222970B5044621D1134D05F135
:10514000100000F0ACFA20281CD995F8E9302BB1FA
:1051500000232B8385F8E9306B832B7704F121063C
:105160000A4D14F8011F05F1100000F057FAB4427F
:10517000F6D1074B187838B9012385F84C3070BD4B
:10518000042070BD052070BD002070BD3841002096
:10519000140D00202DE9F0411C4C054604EB0016CF
:1051A000304600F05CFA202820D9D4F8DC30132BEC
:1051B0001CD905F1380354F82330052B16D904F116
:1051C000AE0504F1CF074FF00008304600F012FAA8
:1051D00005F8010FBD4205F8288CF6D12123A4F86B
:1051E000D8300023A4F8DA30BDE8F081084B25441C
:1051F000002285F8E82003F1210113F8010F8B420A
:1052000083F8620083F83A20F7D1E7E738410020BD
:10521000844100202DE9F0414E4CDFF83881D4F86C
:10522000DC3006460133C4F8DC30D4F8E0300F46F9
:105230000133C4F8E030D4F8E43008F16F050133ED
:10524000C4F8E43094F86E300B2B84BF002384F84C
:105250006E3094F86E30ABB9404600F000FA48B9B1
:1052600008F1100000F0FBF920B93B4A1368C8F8B8
:105270006F3003E0394A1368C4F86F3053686B60CD
:105280009368AB6094F86E20354B15442A88012F43
:10529000A4F8AF20AA784FF000009A700CBF082243
:1052A000042284F88920D4F8DC2084F88700132AAB
:1052B00084F88800A3F1AF0306D903EB071000F0D0
:1052C000CEF9003018BF0120731E94F86E50594279
:1052D00059412DB1B5F1090218BF0122012301E0A6
:1052E0002B46012294F8AFE0012E81EA00070CBFA3
:1052F000082600264EEAC0103043002B84F8AF0089
:1053000081EA030114BF802000209F4214BF0223C2
:10531000002394F8B060914214BF20210021304353
:1053200040EAC200974214BF02220022034384F8DD
:10533000B03094F8B13019430323A4F8D8300023D7
:105340000A43A4F8DA30EB1C84F8B12084F86E30FC
:10535000BDE8F081384100200CA00008B3410020D6
:10536000E74100202DE9F047BDF82040BDF9288035
:10537000A51CADB205EB420201341FFA82FCBDF957
:105380002490284AA4B2C8F1000AAF1EAC45BFB2AF
:1053900045D001F10C0630F816E0FE10C9EB0E0EF8
:1053A0000FFA8EFED64507F007070CDA12F807E071
:1053B0009F5D27EA0E079F5504F00707E61012F8D5
:1053C00007E09F5D21E0BEF1000F0CDA12F807E064
:1053D0009F5D27EA0E079F5504F00707E61012F8B5
:1053E00007E09F5D0EE0C64512F807E09F5D4EEABC
:1053F00007079F5504F007074FEAE40612F807E095
:105400009F5D02DA27EA0E0701E04EEA0707053141
:10541000023502349F5589B2ADB2A4B2B5E7BDE8FA
:10542000F08700BF9A960008B0F8262730B402F142
:105430003C0302F5167294B29BB200225D1C00EB95
:105440004303B3F84A371A44ABB2A342F6D14FF440
:105450000773B2FBF3F230BCC2F3072381F82320B9
:1054600081F822302422007802F064B910B5034696
:105470008489C089A4B280B2844204D11C7C04F027
:10548000FF0004B910BDD8895C6880B234F8100000
:105490000880D989986889B2415C1170002119741B
:1054A000DA891888013292B2DA81DA8992B29042AE
:1054B00000D8D981012010BD037C30B503F0FF0472
:1054C0001BB101234374002030BD838945689BB222
:1054D00025F81310838981689BB2CA548389028896
:1054E00001339BB2838183899BB29A4298BF8481A6
:1054F0008289C38992B29BB29A424FF0010308BFDE
:105500000374184630BDC289838992B29BB29A4215
:1055100005D1027C02F0FF039AB100887047C2896E
:10552000838992B29BB29A4203D28389C089181AA6
:1055300005E0C1898289038892B2D018401A80B2EE
:105540007047184670470000024B99685A689142AC
:10555000FBD17047E4070020034630B500F1180284
:1055600003F8041B002143F8041B9342FBD11A46A5
:1055700000F5E464002522F8025BA2424FF000032C
:10558000F9D142F20F72A0F82037A0F82827A0F82E
:105590002237A0F82437A0F82637A0F82A37C0F819
:1055A0002C37A0F83037A0F83237A0F83437A0F8FD
:1055B0003637A0F83837A0F83A37A0F83C37A0F8CB
:1055C0003E3780F8403780F8413780F8423780F81E
:1055D0004337A0F8443780F8463780F8473780F8DB
:1055E000483700F24A7200F6526122F8023B8A42C2
:1055F000FBD130BD034610B54289416892B2885C48
:10560000002119735A891C88013292B25A815A8931
:10561000C0B292B2944298BF598110BD037B10B5BD
:1056200003F0FF02BBB9038944689BB2E1540389CC
:10563000018801339BB2038103899BB2994298BFD1
:1056400002810289438992B29BB29A424FF00103D0
:1056500003D1037301E0002010BD184610BD42893C
:10566000038992B29BB29A4205D1027B02F0FF03FA
:105670009AB1008870474289038992B29BB29A42DC
:1056800003D203894089181A05E0418902890388F9
:1056900092B2D018401A80B27047184670474289BB
:1056A000038992B29BB29A42028803D1037B93B9D9
:1056B000104612E04189038989B29BB299423BBFEF
:1056C00003894089438980B22DBF00898018C01AA0
:1056D000181A80B201E000207047824238BF0020D3
:1056E0007047002310B50381044643810180037392
:1056F000084602F061FC6060204610BD70B5CD7CAC
:10570000487BAD000C7D05F03C06097B850025F04B
:105710003F05800940EA8100354345EA9415C0B24F
:10572000C002EDB200EBC501C4F3C2042144B1F5DF
:10573000006F084610DB40F675464FF4802420F4D5
:10574000FF6525F007053DB1204201D16408FBE764
:10575000E50A75436840F2E7054C54F820004140E3
:10576000C1F3C721080901F00F011070197070BD55
:10577000A4A10008072910B593BF0446083943685F
:10578000236888BF041D89000F20884023EA000396
:1057900002FA01F11943216010BD10F1FF3001D36D
:1057A00000BFFAE7704700004FF080431A6913B555
:1057B000D20753D56FF001021A6100238DF805302E
:1057C0004FF40063ADF80630254B1B68002B45D025
:1057D000244B01241C6003F500431C600DF10502FD
:1057E0000DF106012048FFF741FEBDF806201F4BD2
:1057F0001F489A6003F53043D96C9DF8052089B2A3
:10580000ADF80610FFF758FE1A4BD96C1A4B93F8F7
:10581000382002F0FF0012B183F8394019E09A8E67
:105820001C6B92B289B224F812109A8E998D0132B3
:1058300092B29A869A8E92B2914298BF9886998E29
:10584000DA8E89B292B2914202BF0B4A012182F8EC
:105850003810D3F828230132C3F8282302B010BD32
:105860000480244200812442B01C002000740040C7
:105870009C1C002000280140981C0020084BC1B24D
:10588000C0F307229A5C595C82B01144C0F307420E
:105890009A5C000E185C0A441044C0B202B0704713
:1058A000A2960008B0F820372DE9F04700EB8303FB
:1058B0005B680446774823F07F43584086B00F4624
:1058C000FFF7DCFFC31EDBB2122B804640F2DE8006
:1058D000B4F822170022733989B28E4616466E4DEF
:1058E000DFF8BCC1DFF8BC914FF47A500EF10C0325
:1058F00034F913309D42B8BF1D469842A8BF1846E0
:10590000B8F1020F94BF12F909A012F90CA0BAF174
:10591000010F0AD0BAF1030F05D0BAF1FF3F06D04C
:1059200003EB430303E003EB4303F61A00E01E44DA
:1059300001320EF1050E182A1FFA8EFED6D1D4F8C8
:105940002C379E4240F3A280284440100FFA80F981
:10595000281A44F631454543042345F3CF350DF16C
:10596000100A0093204653460295CDF80490FFF7A5
:10597000F9FC0023B8F1020F1A464848DFF828E185
:105980003BD8DFF828C11EF803101AF8038008EA94
:10599000010813F80C10013388EA0101415C072B60
:1059A0000A44D2B2EFD1032A70D88FB1A4F83E577F
:1059B000A4F83C57A4F83A57A4F83857A4F83697F7
:1059C000A4F83497A4F83297A4F8309700230BE09A
:1059D00094F8403704EB43020133DBB2032BA2F807
:1059E0003857A2F8309702D884F8403701E084F89D
:1059F0004077C4F82C6740233AE0DFF8B4C01EF8C3
:105A000003101AF8038008EA010813F80C10013398
:105A100088EA0101415C072B0A44D2B2EFD1032A84
:105A200034D88FB1A4F83E57A4F83C57A4F83A579D
:105A3000A4F83857A4F83697A4F83497A4F8329706
:105A4000A4F8309700230BE094F8403704EB4302AE
:105A50000133DBB2032BA2F83857A2F8309702D8F3
:105A600084F8403701E084F84077C4F82C6720239D
:105A700084F84137B4F82237A3F5C372A4F8243769
:105A800003F20D13A4F82627A4F8283706B0BDE8C2
:105A9000F08700BF6E28760080C1FFFFA296000845
:105AA00016C50008AEC50008A0C500082EC5000830
:105AB000A7C50008F0B5B0F822370446B0F82807AB
:105AC0008FB09842C0F06D81B3F5617F80F069813D
:105AD00004EB4300A0F84A270183B4F8200700290B
